:0400000025EF0FF0E9
:08000800046ED8CF05F0E0CF33
:1000100006F00001E9CF0CF0EACF07F0E1CF08F0DD
:10002000E2CF09F0D9CF0AF0DACF0BF0F3CF12F01C
:10003000F4CF13F0FACF14F0F5CF15F0F6CF16F099
:10004000F7CF17F000C00EF001C00FF002C010F0A3
:1000500003C011F09DA230EF00F09EB29BEF01F0C3
:100060000EC000F00FC001F010C002F011C003F08C
:100070000CC0E9FF07C0EAFF078E08C0E1FF09C016
:10008000E2FF0AC0D9FF0BC0DAFF12C0F3FF13C0B2
:10009000F4FF14C0FAFF15C0F5FF16C0F6FF17C035
:1000A000F7FF045006C0E0FF05C0D8FF1000BC0FEA
:1000B000F66E000EF7220900F5501200000027002E
:1000C0004F0076009D00C500EC0013013A0161016C
:1000D0008801AF01D601FC0123024A027002970297
:1000E000BD02E3020A03300356037C03A203C803E4
:1000F000EE03130439045F048404AA04CF04F40457
:1001000019053F0564058905AD05D205F7051C06EF
:10011000400665068906AD06D106F6061A073E07B3
:1001200061078507A907CC07F007130837085A08A5
:100130007D08A008C308E60808092B094E097009C4
:100140009209B509D709F9091B0A3C0A5E0A800A17
:10015000A10AC30AE40A050B260B470B680B890B9F
:10016000AA0BCA0BEA0B0B0C2B0C4B0C6B0C8B0C5D
:10017000AB0CCA0CEA0C090D280D480D670D860D55
:10018000A40DC30DE20D000E1E0E3D0E5B0E790E8A
:10019000960EB40ED20EEF0E0C0F2A0F470F630F00
:1001A000800F9D0FB90FD60FF20F0E102A104610B8
:1001B00062107D109910B410CF10EA1005112011B3
:1001C0003B1155116F118A11A411BE11D711F111F4
:1001D0000A1224123D1256126F128812A012B9127E
:1001E000D112E91201131913F60FF66E010EF72260
:1001F0000900F5501200000027004F0077009E0014
:10020000C600EE0015013D0165018D01B501DD015E
:1002100005022D0255027D02A502CE02F6021E0342
:1002200046036F039703C003E80311043904620413
:100230008B04B304DC0405052E0556057F05A805CF
:10024000D105FA0523064C0675069E06C706F0067C
:10025000190742076B079507BE07E70710083A081A
:1002600063088C08B608DF08080932095B098409AD
:10027000AE09D709010A2A0A540A7D0AA70AD00A38
:10028000FA0A230B4D0B760BA00BC90BF30B1C0CBE
:10029000460C700C990CC30CEC0C160D3F0D690D3F
:1002A000920DBC0DE50D0F0E380E620E8B0EB50EC5
:1002B000DE0E080F310F5B0F840FAD0FD70F00104C
:1002C0002A1053107C10A610CF10F81021114B11DA
:1002D00074119D11C611EF11191242126B12941272
:1002E000BD12E6120F13381361138A13B313DC1314
:1002F00004142D1456147F14A814D014F9142215C4
:100300004A1573159C15C415ED1515163E1667167E
:100310008F16B716E0160817311759178117AA1745
:10032000D217F76A320FF66E030EF7220900F55066
:100330001200280C0106232AD8B4242A9E9230EFFA
:1003400000F00D0A0D0A4343532043414E205452FE
:10035000414E5346455220424D45323830204441AB
:1003600054410D0A00000D0A52756E6E696E672EBB
:100370002E2E00000D0A53504956414C33203D208B
:1003800025582053504956414C32203D20255820B5
:1003900053504956414C31203D2025582053504957
:1003A00056414C30203D2025582000000D507265EC
:1003B0002046696C746572203D202566204C696E6C
:1003C000656172697A6564203D2025662000494494
:1003D0003A30783239000D0A474F543A2042554698
:1003E000463D25552049443D254C55204C454E3D24
:1003F0002555204F56463D255520000046494C5472
:100400003D2555205254523D2555204558543D25F3
:100410005520494E563D255500000D0A202020202C
:1004200044415441203D20000D0A4641494C206F73
:100430006E20474554440D0A00000D0A50555420C3
:1004400025553A2049443D254C55204C454E3D25E7
:10045000552000005052493D2555204558543D2512
:1004600055205254523D25550D0A20202044415418
:1004700041203D2000000D0A4641494C206F6E206E
:10048000505554440D0A00000900F5520DE0F6CF16
:1004900053F0F7CF54F0F5509EA8FED7AD6E53C081
:1004A000F6FF54C0F7FFF0D71200EA6A720EE96E49
:1004B000EF500DE0060E016E006A002EFED7012EF1
:1004C000FBD77B0E006E002EFED7EF2EF3D7120067
:1004D00069B102D0899001D08980929069B302D02D
:1004E000899201D08982929269B502D0899801D00F
:1004F0008988929869B702D0899A01D0898A929A9C
:1005000085EF02F068C069F0E3D7100E006E002E90
:10051000FED7000094928B82100E006E002EFED744
:10052000000094928B92120094908B90010E726F47
:10053000BCDF655302E18B9001D08B809490200E3C
:10054000006E002EFED700D00000200E006E002EA0
:10055000FED700D0000094928B926639676F0F0E21
:10056000671767C068F0CEDF66510F0B676F686F63
:10057000C9DF120094908B9094928B92C80E726F88
:1005800094DF010E536E5350030808E3030E686FA7
:10059000B9DF0A0E726F89DF532AF5D7020E686F32
:1005A000B1DF536A5350030809E3036A5350B9DEBD
:1005B000546E656B666FB8DF532AF4D71200533858
:1005C000700B006ED89000361F0E6F1400106F6E07
:1005D0006ECF00F0003A0030070B535CF9E11200D7
:1005E000C00E70140409706E3F0E7014706EF80E19
:1005F00071140209716EC70E71142809716E719C15
:10060000718EF80E72140509726E729CA4EF03F0DD
:1006100064C06BF063C06AF0695352E06AC0E9FFDE
:100620006BC0EAFF65C0EFFF6A51D8B46B076A0779
:100630006AC0E9FF6BC0EAFF66C0EFFF6A51D8B439
:100640006B076A076AC0E9FF6BC0EAFF6751030BDB
:10065000EF6E6AC0E9FF6BC0EAFF67C000F00036CA
:1006600000360036F80E00160050E00BEF10EF6E6B
:100670006AC0E9FF6BC0EAFFEF500809EF6E6A51EC
:10068000D8B46B076A076AC0E9FF6BC0EAFF67C0AE
:1006900000F0003A0032070E00160050070BEF6E14
:1006A0006AC0E9FF6BC0EAFF68C000F000360036A0
:1006B0000036F80E00160050F80BEF10EF6E3FD02A
:1006C0006AC0E9FF6BC0EAFFEF6A6A51D8B46B07F2
:1006D0006A076AC0E9FF6BC0EAFFEF6A6A51D8B4E3
:1006E0006B076A076AC0E9FF6BC0EAFF65C000F0EC
:1006F000003A0036E00E00160050E00BEF6E6A5133
:10070000D8B46B076A076AC0E9FF6BC0EAFF65C02F
:1007100000F00032003200321F0E001600501F0B96
:10072000EF6E6AC0E9FF6BC0EAFF66C000F0003AF6
:100730000036E00E00160050E00BEF10EF6E1200D6
:10074000040E536E3CDF4CD7606A9F0E6014606EDF
:10075000608460CF50FF739A7398739E739C0F0EE2
:10076000646F1B0E636F686B676B666B656B010E66
:10077000696F4EDF0F0E646F030E636F686B676BFC
:10078000666B656B010E696F43DF0F0E646F070EBA
:10079000636F686B676B666B656B010E696F38DF43
:1007A0000F0E646F1F0E636F686B676B666B656B14
:1007B000010E696F2DDF0F0E646F0B0E636F686B98
:1007C000676B666B656B010E696F22DF0F0E646FDE
:1007D000636F686B676B666B656B010E696F18DF23
:1007E0000F0E646F130E636F686B676B666B656BE0
:1007F000010E696F0DDF0F0E646F170E636F686B6C
:10080000676B666B656B010E696F02DF9350FB0BC4
:100810000809936E536AD3DE71EF0FF07351080825
:1008200004E0746F7237742FFDD79388939A8A9A75
:1008300073C074F08A8A070E756F752FFED7013664
:1008400081A8019081B801808A9A080E756F752F72
:10085000FED7742FEFD71200726B080E736FDEDFB6
:10086000939C8A9C726B080E736FD8DF015001C095
:100870001CF0100E006E002EFED70000726B080EEA
:10088000736FCCDF015001C01BF0100E006E002E04
:10089000FED70000726B080E736FC0DF015001C0FD
:1008A0001AF0100E006E002EFED70000726B080EBC
:1008B000736FB4DF015001C019F0100E006E002EEE
:1008C000FED70000939C8A8C12008E0E006E7BC0B7
:1008D00001F07AC002F0036A015209E102C001F09E
:1008E000026A080E005E015202E1006A08D0D89048
:1008F00001BE04D0023601360006F9D7019E12006F
:100900000900F6CF58F0F7CF59F0F5509EA8FED762
:10091000AD6E58C0F6FF59C0F7FF572EF1D7120041
:1009200055BE10D00F0E006E543800160A0E005C33
:1009300003E2300E002602D05550002600509EA83B
:10094000FED7AD6E0F0E54160A0E545C02E2300E46
:1009500002D0559E5550542654509EA8FED7AD6ED9
:10096000120072917293729572971B50010B7297DD
:10097000E8B072871930006E00323F0E001600504A
:10098000010B7291E8B07281D8901930010B72930B
:10099000E8B072831950010B7295E8B07285000EB1
:1009A00072B7010E736F000E72B1010E006ED89017
:1009B000003600507325000E72B3010E040DF35083
:1009C000000E72B5010E080DF3CF01F01FEF08F015
:1009D0007A51D8B4A5D0866F7E51D8B4A1D0865FA5
:1009E00005E37F0E8627D8B09BD006D0810E865FA8
:1009F000D8A096D0D8B494D086C000F0016A026A1C
:100A0000036A856B7BC084F0848F7CC083F07DC0DB
:100A100082F0190E866F8151825F0DE2010E835FB5
:100A20000AE2845F08E2855F06E2852B842B832B34
:100A30008151822728D08051835F12E2010E845FAA
:100A40000FE2855F0DE2852B842B80518327815136
:100A5000822719E3832B17E1842B15E1852B13D013
:100A60007F518009845F0EE2010E855F0BE2852BCA
:100A70007F518009842780518327E9E3842BE7E1B4
:100A8000852BE5D70380862F01D00BD0D8908237F5
:100A9000833784378537D890033602360136873757
:100AA000BAD787A106D0D8900132023203328733F9
:100AB00002D0000635E087BF1ED0D890823783373A
:100AC000843785378151825F07E2010E835F04E23C
:100AD000845F02E2855F1AE38051835F05E2010EC5
:100AE000845F02E2855F12E37F518009845F03E245
:100AF000010E855F0BE3032A09E1022A07E1012ABF
:100B000005E1002A0DE00132023203327BC086F09B
:100B10007F51861B86AF02D0018E06D0019E04D085
:100B2000006A016A026A036A12007E51D8B471D069
:100B3000006E8251D8B46DD0002604E3810E0026E9
:100B400068E204D07F0E005E64E363E07FC086F05D
:100B50008351861B7F8F838F81518503F4CF88F06B
:100B600080518403F4CF03F0F3CF87F08503F35073
:100B70008827F4508723000E032281518403F35009
:100B80008827F4508723000E026A032202227F5135
:100B90008503F3508727F4500322000E02227F5171
:100BA0008403F3500326F4500222000E016A01224E
:100BB00081518303F3508727F4500322000E022251
:100BC000012280518303F3500326F4500222000EC9
:100BD00001227F518303F3500226F4500122002AA0
:100BE00001BE05D087370336023601360006000EF7
:100BF00087AF0AD0032A02220122015005E10250E8
:100C000003E1035001E1002A86BF018E86AF019EF9
:100C100004D0006A016A026A036A1200756B746B81
:100C2000796B786B776B766B1CC075F01BC074F0BA
:100C300075BF2BD075337433753374333F0E75170E
:100C400075C07BF074C07AF040DE03C07DF002C056
:100C50007CF001C07BF000C07AF0816B806B7F6B11
:100C6000810E7E6FB5DE03C079F002C078F001C05E
:100C700077F000C076F076C000F077C001F078C061
:100C800002F079C003F047D046D0741F751F75334A
:100C90007433753374333F0E7517010E7427000ECD
:100CA000752375C07BF074C07AF00FDE03C07DF051
:100CB00002C07CF001C07BF000C07AF0816B806BD9
:100CC0007F6B810E7E6F84DE03C07DF002C07CF0FE
:100CD00001C07BF000C07AF003C081F002C080F058
:100CE00001C07FF000C07EF0856B846B800E836F47
:100CF0007F0E826F1ADF03C079F002C078F001C066
:100D000077F000C076F076C000F077C001F078C0D0
:100D100002F079C003F02EEF08F0800ED8B27B1BF2
:100D2000806B816B77C07FF07B517F1B7651D8B48D
:100D3000DCD07E6F006E7A51D8B4E0D07E5FD8B43C
:100D400081D03DE37BC084F0848F7CC083F07DC084
:100D500082F0816BD89084338333823381337E2F4A
:100D6000F8D77FAF03D08081DDD080917E918089DC
:100D7000EA6A790EE96EE9D080997FBF0AD07EA138
:100D800013D08433833382338133002AD8B4C5D05F
:100D90000BD084BF0CD0D89081378237833784370B
:100DA0000006D8B4BAD0F5D7808D6BD0809D77C0BF
:100DB0007FF077AF02D0848FA9D0849FA7D07AC06C
:100DC0007EF07AC000F076517E5F77C084F0848F29
:100DD00078C083F079C082F0816BD89084338333FC
:100DE000823381337E2FF8D77FAF03D080839AD0B0
:100DF00080937E91808BEA6A7D0EE96EA6D0809BFF
:100E00007FBF0AD07EA113D08433833382338133F2
:100E1000002AD8B482D00BD084BF0CD0D8908137B0
:100E20008237833784370006D8B477D0F5D7808FE0
:100E300028D0809F7BC07FF07BAF02D0848F66D0AC
:100E4000849F64D07BC084F0848F7CC083F07DC09D
:100E500082F07FAF04D0849F808564D08095816BC1
:100E60007E91EA6A790EE96E70D07FBF1CD077C0A0
:100E70007FF07EA106D08433833382338133002A0E
:100E80004CE081AF0BD0822B09E1832B07E1842B4F
:100E900005E1843383338233002A3FE080BD86D767
:100EA00080BFC7D71CD0800E841B84AF04D03AD03B
:100EB0007BC07FF00AD077C07FF0845306E1835374
:100EC00004E1825302E1006A21D084BF08D0D890A7
:100ED0008137823783378437002EF7D71ED07FAF14
:100EE00002D0848F13D0849F11D07AC000F07BC0D1
:100EF00084F07CC083F07DC082F008D076C000F022
:100F000077C084F078C083F079C082F084C001F0AB
:100F100083C002F082C003F034D0006A016A026A22
:100F2000036A2FD0816B821F831F841F811F812B37
:100F300005E1822B03E1832B01E1842B80B115D7DE
:100F400080B356D780B58AD7B3D7EF50822705E351
:100F5000832B03E1842BD8B47E81ED52EF5083279D
:100F600003E3842BD8B47E81ED52EF50EFBE01D065
:100F7000800A8427D8B07E8180B9FED680BB3FD757
:100F800074D7120077C07EF07B517E1B7EAF05D0F8
:100F9000D894D89077BFD8802FD077C07EF07AC011
:100FA0007FF076517F5F06E07EAF26D0D850010AF1
:100FB000D86E22D07BC07FF077517F5F06E07EAF96
:100FC0001BD0D850010AD86E17D07CC07FF0785162
:100FD0007F5F06E07EAF10D0D850010AD86E0CD0EB
:100FE0007DC07FF079517F5F06E07EAF05D0D8509D
:100FF000010AD86E01D0D8901200646B656B666BE5
:10100000676B686B696B6A6B6B6B6C6B6D6B6E6B34
:101010006F6B706B719171B1E7D0676B666B656BCD
:10102000646B6B6B6A6B696B686B6F6B6E6B6D6B14
:101030006C6B706B7051020823E30EDC92D401528A
:10104000FCE17051040DF350036A640F016E000E51
:10105000032201C072F003C073F0E0D573C0EAFF51
:1010600072C0E9FF00C0EFFF01C0ECFF02C0ECFF5F
:1010700003C0ECFF702B640E726F55EC02F0DAD7F0
:10108000D88267C079F066C078F065C077F064C038
:1010900076F06BC07DF06AC07CF069C07BF068C000
:1010A0007AF03BDE03C075F002C074F001C073F04B
:1010B00000C072F000C000F001C001F002C002F0F8
:1010C00003C003F0019E03C075F002C074F001C0BC
:1010D00073F000C072F003C079F002C078F001C074
:1010E00077F000C076F07D6B7C6B200E7B6F7F0EFF
:1010F0007A6F48DFD8A077D0D8826BC079F06AC009
:1011000078F069C077F068C076F06FC07DF06EC08F
:101110007CF06DC07BF06CC07AF0FFDD03C075F031
:1011200002C074F001C073F000C072F000C000F0A3
:1011300001C001F002C002F003C003F0019E03C031
:1011400075F002C074F001C073F000C072F003C00B
:1011500079F002C078F001C077F000C076F07D6BC6
:101160007C6B200E7B6F7F0E7A6F0CDF3CE3D882A6
:1011700067C079F066C078F065C077F064C076F03B
:101180006FC07DF06EC07CF06DC07BF06CC07AF0FB
:10119000C4DD03C075F002C074F001C073F000C07C
:1011A00072F000C000F001C001F002C002F003C004
:1011B00003F0019E03C075F002C074F001C073F02B
:1011C00000C072F003C079F002C078F001C077F07F
:1011D00000C076F07D6B7C6B200E7B6F7F0E7A6F8C
:1011E000D1DE01E3718117D7D89267C079F066C06C
:1011F00078F065C077F064C076F06BC07DF06AC0AF
:101200007CF069C07BF068C07AF087DD03C075F0C0
:1012100002C074F001C073F000C072F0D89203C035
:1012200079F002C078F001C077F000C076F06FC0AE
:101230007DF06EC07CF06DC07BF06CC07AF06DDD2F
:1012400003C075F002C074F001C073F000C072F00A
:1012500003C07DF002C07CF001C07BF000C07AF0DA
:10126000816B806B400E7F6F800E7E6FE8EC04F028
:101270001200656B646B696B686B676B666B1AC099
:1012800065F019C064F065BF31D0653364336533F0
:10129000643365336433653364330F0E651765C09B
:1012A0007BF064C07AF065EC04F003C07DF002C00E
:1012B0007CF001C07BF000C07AF0816B806B7F6BAB
:1012C000830E7E6FE8EC04F003C069F002C068F0A2
:1012D00001C067F000C066F066C000F067C001F0B2
:1012E00068C002F069C003F04ED04DD0641F651F86
:1012F0006533643365336433653364336533643332
:101300000F0E6517010E6427000E652365C07BF084
:1013100064C07AF065EC04F003C07DF002C07CF09C
:1013200001C07BF000C07AF0816B806B7F6B830E15
:101330007E6FE8EC04F003C06DF002C06CF001C0F9
:101340006BF000C06AF003C081F002C080F001C001
:101350007FF000C07EF0856B846B800E836F7F0E04
:10136000826F95EC05F003C069F002C068F001C01F
:1013700067F000C066F066C000F067C001F068C0AA
:1013800002F069C003F0E0EF09F0566A556A546A4A
:10139000536A5A6A596A586A576A5E6A5D6A5C6A31
:1013A0005B6A626B616B606B5F6A636B26DE03C0B6
:1013B00062F002C061F001C060F000C05FF059D778
:1013C00003C05EF002C05DF001C05CF000C05BF0E5
:1013D00062C079F061C078F060C077F05FC076F0ED
:1013E0007D6B7C6B7B6B7A6BCDDDD8A0E6D0D88231
:1013F00062C079F061C078F060C077F05FC076F0CD
:101400005EC07DF05DC07CF05CC07BF05BC07AF0BC
:1014100084DC03C056F002C055F001C054F000C097
:1014200053F056C081F055C080F054C07FF053C0D7
:101430007EF0060E856F110E846F290E836F7A0E73
:10144000826F95EC05F003C05AF002C059F001C05C
:1014500058F000C057F07B6B63C07AF065EC04F085
:1014600003C079F002C078F001C077F000C076F0D8
:101470005EC07DF05DC07CF05CC07BF05BC07AF04C
:1014800081DD02E3632BE7D76307036A63C002F0E1
:10149000D89002360336025003C0F7FFF4EC00F098
:1014A0000900F5CF03F0646F03C065F003C07BF063
:1014B0007A6F65EC04F003C07DF002C07CF001C0DF
:1014C0007BF000C07AF0816B806B7A0E7F6F880EA4
:1014D0007E6FE8EC04F0D8925AC079F059C078F0E9
:1014E00058C077F057C076F003C07DF002C07CF0A2
:1014F00001C07BF000C07AF010DC03C05AF002C0DB
:1015000059F001C058F000C057F05AC081F059C0DE
:1015100080F058C07FF057C07EF0856B846BFA0E68
:10152000836F880E826F95EC05F003C05AF002C0FD
:1015300059F001C058F000C057F0636B036A63C0F4
:1015400002F0D89002360336025003C0F7FF57EC82
:1015500000F00900F5CF03F07A6F03C07BF065EC73
:1015600004F003C079F002C078F001C077F000C049
:1015700076F05AC07DF059C07CF058C07BF057C05F
:101580007AF000DD02E3632BD9D763077B6B63C07E
:101590007AF065EC04F003C081F002C080F001C075
:1015A0007FF000C07EF0856B846B800E836F7F0EB2
:1015B000826F95EC05F009D008D05FC000F060C0E4
:1015C00001F061C002F062C003F0ECEF0FF0605177
:1015D000B608606F036A61C064F0618FD8906133B0
:1015E000623363330332023201320032602FF6D7A6
:1015F00064AF0BD0001E011E021E031E002AD8B4C9
:10160000012AD8B4022AD8B4032A1200D8B203D0CF
:10161000EA6A690EE96E006A016A026A036A696B26
:101620006A6B6B6B6C6B68516711661165112CE00E
:10163000200E6D6FD8906137623763376437693732
:101640006A376B376C3768516C5D08E167516B5DC9
:1016500005E166516A5D02E16551695D0FE365511F
:10166000695F6651D8A0663D6A5F6751D8A0673D43
:101670006B5F6851D8A0683D6C5FD880003601363A
:10168000023603366D2FD6D769C0EFFF6AC0ECFF74
:101690006BC0ECFF6CC0ECFF1200E950586E575065
:1016A0005A6E1AE056C081F055C080F054C07FF0E9
:1016B00053C07EF0856B846B200E836F820E826F29
:1016C00095EC05F003C056F002C055F001C054F08F
:1016D00000C053F05A2EE6D756C063F055C062F0F2
:1016E00054C061F053C060F072DF03C056F002C016
:1016F00055F001C054F000C053F056AE0DD058065E
:10170000588A531E541E551E561E532AD8B4542AA6
:10171000D8B4552AD8B4562A3B0E5F6E9A0E5E6E28
:10172000CA0E5D6E5C6A0A0E5A6E5750D8B4582ABB
:10173000D882EA6A530EE96E56C064F055C063F071
:1017400054C062F053C061F05FC068F05EC067F0E3
:101750005DC066F05CC065F059DF015000520FE1DA
:1017600057285A5C0CE058500CE00F0B5A5C01E013
:101770003BE258BE39D058BC04D0200E30D0200EE9
:10178000581658AA0DD0589A5750D8A45806005049
:10179000586E2D0E9EA8FED7AD6E5850006E586A3A
:1017A00057505A5C0BE10050586E2E0E9EA8FED783
:1017B000AD6E5850006E200E5816000E300E58AA0E
:1017C0000ED0589A5750D8A458060050586E2D0E77
:1017D0009EA8FED7AD6E5850006E586A300E002697
:1017E00000509EA8FED7AD6ED8925FC064F05EC078
:1017F00063F05DC062F05CC061F0686B676B666B44
:101800000A0E656F03DF03C05FF002C05EF001C027
:101810005DF000C05CF05A2E8BD71200010E625DA5
:10182000FC0F0EE2040F2BEF0CF0800E636F08D05C
:10183000C00E636F05D0940E636F02D0D40E636F39
:10184000010E615D632763518009646F656B666F8C
:1018500094EC02F01200E824F76AF736710FF66E86
:10186000180EF7220A00F550FA6E0800F550F96ECE
:101870002A18301836183C1860510C0A05E0060A80
:101880000DE0020A11E016D0656B010E666F94EC54
:1018900002F0020E726F55EC02F012D0010E616F71
:1018A000020E626FBBDF0CD0656B100E666F94EC9E
:1018B00002F006D0010E656F60C066F094EC02F095
:1018C0001200E950586E57505A6E1AE056C081F017
:1018D00055C080F054C07FF053C07EF0856B846BA0
:1018E000200E836F820E826F95EC05F003C056F0D8
:1018F00002C055F001C054F000C053F05A2EE6D794
:1019000056C063F055C062F054C061F053C060F03F
:101910005EDE03C056F002C055F001C054F000C0B6
:1019200053F056AE0DD05806588A531E541E551EFD
:10193000561E532AD8B4542AD8B4552AD8B4562A95
:101940003B0E5F6E9A0E5E6ECA0E5D6E5C6A0A0E8C
:101950005A6E5750D8B4582AD882EA6A530EE96EA4
:1019600056C064F055C063F054C062F053C061F0DB
:101970005FC068F05EC067F05DC066F05CC065F097
:1019800045DE015000520FE157285A5C0CE05850D8
:101990000CE00F0B5A5C01E037E258BE35D058BC62
:1019A00004D0200E2DD0200E581658AA0CD0589ACC
:1019B0005750D8A458060050586E2D0E606F5CDF4B
:1019C0005850006E586A57505A5C0AE10050586EE1
:1019D0002E0E606F51DF5850006E200E5816000E0C
:1019E000300E58AA0DD0589A5750D8A45806005017
:1019F000586E2D0E606F40DF5850006E586A300EE2
:101A0000002600C060F038DFD8925FC064F05EC08E
:101A100063F05DC062F05CC061F0686B676B666B21
:101A20000A0E656FF3DD03C05FF002C05EF001C017
:101A30005DF000C05CF05A2E8FD740EF10F0090027
:101A4000F5520CE0F6CF53F0F7CF54F0F5CF60F03D
:101A500013DF53C0F6FF54C0F7FFF1D74BEF10F080
:101A6000656B646B636B626B60C067F05FC066F050
:101A70006153D8B489D066C0E9FF67C0EAFF656BDF
:101A8000646B636BEFCF62F06651D8B4670766078B
:101A900066C0E9FF67C0EAFFEF506A6B696B686F69
:101AA000006A0050621368516313695164136A51EC
:101AB00065136651D8B46707660766C0E9FF67C05B
:101AC000EAFFEF506B6B6A6B696B686F030E681708
:101AD000696B6A6B6B6B006A016A0050621301509C
:101AE0006313685164136951651366C0E9FF67C0E9
:101AF000EAFFEF506B6B6A6B696B686FE00E6817FB
:101B0000696B6A6B6B6B006A6835016E6935026ED2
:101B10006A35036E01360236033601360236033665
:101B2000013602360336013602360336E00E011660
:101B30000050621301506313025064130350651385
:101B40006651D8B46707660766C0E9FF67C0EAFF59
:101B5000EF50696B686F006A016A6835026E69351B
:101B6000036E023603360236033602360336023679
:101B70000336E00E02160050621301506313025048
:101B800064130350651353D0020E665F000E675B4B
:101B900066C0E9FF67C0EAFFEF506B6B6A6B696B69
:101BA000686FE00E6817696B6A6B6B6B6B31656F02
:101BB0006A31646F6931636F6831626F65336433B2
:101BC0006333623365336433633362336533643361
:101BD000633362336533643363336233070E6517EF
:101BE0006651D8B46707660766C0E9FF67C0EAFFB9
:101BF000EF506B6B6A6B696B686F6835006E6935A7
:101C0000016E6A35026E6B35036E003601360236A0
:101C100003360036013602360336F80E0016005041
:101C2000621301506313025064130350651362C0C2
:101C300000F063C001F064C002F065C003F09DEFE6
:101C400010F05A50016A595C03E259C000F00CD000
:101C5000006A080E5B6E593600365A50005CD8B0E8
:101C6000006E01365B2EF7D71200015057C059F0B5
:101C7000640E5A6EE6DF00C057F00150300E07E1E7
:101C800058A20DD058B60BD058B8200E03D0589695
:101C900058985880012601509EA8FED7AD6E57C0B7
:101CA00059F00A0E5A6ECDDF00C057F00150300EC9
:101CB00006E158B609D058A007D058B8200E012622
:101CC00001509EA8FED7AD6E300E572657509EA8E5
:101CD000FED7AD6E1200E950596E3B0E606F9A0E42
:101CE0005F6ECA0E5E6E5D6A0A0E5B6ED882EA6A2D
:101CF000550EE96E58C064F057C063F056C062F0EC
:101D000055C061F060C068F05FC067F05EC066F00B
:101D10005DC065F07BDC015000520FE15B50010AB1
:101D20000CE059500BE00F0B5B5C01E00DE259BE7B
:101D30000BD059BC03D0200E02D0596A300E0026B9
:101D400000509EA8FED7AD6ED89260C064F05FC010
:101D500063F05EC062F05DC061F0686B676B666BDC
:101D60000A0E656F53DC03C060F002C05FF001C073
:101D70005EF000C05DF05B2EB9D712000F0E616FF0
:101D8000660E606F0F0140B708D0F10E6F1408099E
:101D90006F6E0001626B1BD00F0130B709D0F10EDE
:101DA0006F1406096F6E010E0001626F10D00F01F3
:101DB00020B709D0F10E6F1404096F6E020E0001F6
:101DC000626F05D00F01000E016E3CD000015C5027
:101DD000030B006EFC0E60140010606E0F0E646F3B
:101DE000640E636F58C068F057C067F056C066F065
:101DF00055C065F05DC069F008EC03F05BC065FF9D
:101E0000659C5EB0658C5F6A5B505F5C14E259C094
:101E1000E9FF5AC0EAFFEFCF65F061C0EAFF60C09A
:101E2000E9FF65C0EFFF602BD8B4612B592AD8B405
:101E30005A2A5F2AE9D76086F10E6F146F6E010E81
:101E4000016E0F010001C1EF11F0F86AD09E078EFC
:101E5000B886810EAF6E000EB06EA60EAC6E900E00
:101E6000AB6E9388939A8A9AC150C00B0F09C16ECA
:101E7000196A1A6A1B6A1C6A1D6A1E6A3E6A3D6AF2
:101E80003C6A1D0E3B6E3F903F82080E406E030E73
:101E9000416E426A4250070813E3036A4250330F0F
:101EA000E96E000E0320EA6E330EEF6E036A4250B5
:101EB0002A0FE96E000E0320EA6EEF6A422AEAD783
:101EC000420EF66E030EF76E44EC02F0780E050932
:101ED000CA6E4F0ECB6EBAEC02F0BAEC02F0A0EF75
:101EE00003F09D82C00EF212660EF66E030EF76EC0
:101EF00044EC02F02CEC04F07B6B7A6B65EC04F0A4
:101F000003C04AF002C049F001C048F000C047F0E9
:101F1000140E726F55EC02F0740EF66E030EF76E2F
:101F20000C0E576E80EC04F01CC054F0370E556E4A
:101F300090EC04F0820EF66E030EF76E0B0E576EE9
:101F400080EC04F01BC054F0370E556E90EC04F09A
:101F50008F0EF66E030EF76E0B0E576E80EC04F0CC
:101F60001AC054F0370E556E90EC04F09C0EF66ECD
:101F7000030EF76E0B0E576E80EC04F019C054F090
:101F8000370E556E90EC04F0200E9EA8FED7AD6E75
:101F90000A0E726F55EC02F0FDEC07F003C04EF034
:101FA00002C04DF001C04CF000C04BF00A0E726F41
:101FB00055EC02F04EC046F04DC045F04CC044F028
:101FC0004BC043F043C033F044C034F045C035F05B
:101FD00046C036F0C5EF09F003C052F002C051F020
:101FE00001C050F000C04FF00A0E726F55EC02F0C5
:101FF000AC0EF66E030EF76E0E0E576E80EC04F00C
:10200000890EE96E4EC056F04DC055F04CC054F0EC
:102010004BC053F0020E576E4DEC0BF0BC0EF66E3B
:10202000030EF76E0E0E576E80EC04F0890EE96E0B
:1020300052C056F051C055F050C054F04FC053F04C
:10204000020E576E4DEC0BF0200E9EA8FED7AD6E23
:10205000010E616F626F0EEC0CF0540E606F0CDCC1
:102060003D0E606F09DC020EE96E4EC056F04DC0A9
:1020700055F04CC054F04BC053F0010E576E21D4B4
:10208000010E616F020E626F0EEC0CF0CE0EF66E5A
:10209000030EF76ED4D460BE04D00F0150AF42D10E
:1020A0000001546A2A0E536E60AE17D0F10E6F1401
:1020B0006F6E2598A490259074BE2580749E60A4B0
:1020C0000BD0000E60B0010E070B006ED8900036EA
:1020D000F10E25140010256E1CD00F0150AF15D045
:1020E000F10E6F140A096F6E2588A492259074BCB6
:1020F0002580749C5051070B070B006ED89000365A
:10210000F10E25140010256E03D0000E016E4AD08A
:10211000000165500F0B326E259A65BC258A259CFF
:1021200062B6258C000E25BC010E586E0F0E606F36
:10213000640E5F6E58C061F093D403C029F002C0F2
:1021400028F001C027F000C026F00F0E576E660E73
:10215000566E556A3250555C14E256C0E9FF57C0BE
:10216000EAFFEFCF5AF054C0EAFF53C0E9FF5AC06C
:10217000EFFF532AD8B4542A562AD8B4572A552ADE
:10218000E9D7F10E6F146F6E259EA4BE258EA49E16
:1021900025A804D00F01509F03D00001609E0F01BD
:1021A000010E016E0152D8B4B5D0000E25B8010E53
:1021B000536E000E25B0010E546ED60EF66E030E51
:1021C000F76E0C0E576E000180EC04F053C057F010
:1021D0001B0E586E4ADDE40EF66E030EF76E040E0B
:1021E000576E80EC04F0410EE96E29C058F028C00B
:1021F00057F027C056F026C055F06DDDEB0EF66E99
:10220000030EF76E050E576E80EC04F032C057F0E7
:102210001B0E586E2ADDF20EF66E030EF76E050EDB
:10222000576E80EC04F054C057F01B0E586E1DDD45
:10223000200E9EA8FED7AD6E25C000F02530070BFE
:10224000536E000E25BA010E546E000E25BC010E11
:10225000556E000E25BE010E566EFC0EF66E030E78
:10226000F76E050E576E80EC04F053C057F01B0E4E
:10227000586EFBDC030EF66E040EF76E050E576EFD
:1022800080EC04F054C057F01B0E586EEEDC0A0EC2
:10229000F66E040EF76E050E576E80EC04F055C016
:1022A00057F01B0E586EE1DC110EF66E040EF76E41
:1022B000050E576E80EC04F056C057F01B0E586E9A
:1022C000D4DC1A0EF66E040EF76E44EC02F0426A8D
:1022D0003250425C15E2036A42502A0FE96E000E4A
:1022E0000320EA6EEFCF53F053C054F0370E556E13
:1022F00090EC04F0200E9EA8FED7AD6E422AE8D7DF
:102300000D0E9EA8FED7AD6E0A0E9EA8FED7AD6E2E
:1023100008D00F01280EF66E040EF76E000144EC93
:1023200002F00F0140A704D030A702D020B7C7D0D9
:1023300024500608D8B0C3D0FF0A04E12350D008C7
:10234000D8B0BDD0246A236A000E3FB2010E536E8E
:10235000000E3FB0010E546E3EC058F03DC057F025
:102360003CC056F03BC055F05A6A330E596E40C01F
:102370005BF041C05CF053C05DF054C05EF0000102
:10238000FDD401C042F0423C01D092D03A0EF66E2C
:10239000040EF76E060E576E80EC04F042C057F044
:1023A0001B0E586E62DC420EF66E040EF76E050EC2
:1023B000576E80EC04F0410EE96E3EC058F03DC00F
:1023C00057F03CC056F03BC055F085DC4A0EF66E27
:1023D000040EF76E050E576E80EC04F040C057F007
:1023E0001B0E586E42DC200E9EA8FED7AD6E000E6E
:1023F0003FB2010E536E000E3FB0010E546E540EEC
:10240000F66E040EF76E040E576E80EC04F041C0B9
:1024100057F01B0E586E29DC5A0EF66E040EF76E3E
:10242000050E576E80EC04F053C057F01B0E586E2B
:102430001CDC610EF66E040EF76E050E576E80EC16
:1024400004F054C057F01B0E586E0FDC680EF66E89
:10245000040EF76E0C0E576E80EC04F0426A40508A
:10246000425C1DE2036A4250330FE96E000E032006
:10247000EA6EEFCF53F00D0E9EA8FED7AD6E0A0E9A
:102480009EA8FED7AD6E53C054F0370E556E90EC3B
:1024900004F0200E9EA8FED7AD6E422AE0D70D0EA6
:1024A0009EA8FED7AD6E0A0E9EA8FED7AD6E06D0D2
:1024B000760EF66E040EF76E44EC02F00F01020E7B
:1024C000536EFA0E0001726F55EC02F0532E01D0DC
:0A24D00002D00F01F6D70ED503006D
:020000040030CA
:0E00000000C21E1E008691000FC00FE00F40D0
:00000001FF
;PIC18F2480
;CRC=9EBD  CREATED="10-Thg11-17 12:48"
